{
  "_format": "hh-sol-artifact-1",
  "contractName": "GameLogic",
  "sourceName": "contracts/GameLogic.sol",
  "abi": [
    {
      "inputs": [
        {
          "internalType": "address",
          "name": "_red",
          "type": "address"
        },
        {
          "internalType": "address",
          "name": "_blue",
          "type": "address"
        },
        {
          "internalType": "address",
          "name": "_green",
          "type": "address"
        },
        {
          "internalType": "address",
          "name": "_yellow",
          "type": "address"
        }
      ],
      "stateMutability": "nonpayable",
      "type": "constructor"
    },
    {
      "anonymous": false,
      "inputs": [
        {
          "indexed": false,
          "internalType": "address",
          "name": "voter",
          "type": "address"
        },
        {
          "indexed": false,
          "internalType": "uint256",
          "name": "price",
          "type": "uint256"
        },
        {
          "indexed": false,
          "internalType": "uint256",
          "name": "roundNumber",
          "type": "uint256"
        },
        {
          "indexed": false,
          "internalType": "uint256",
          "name": "color",
          "type": "uint256"
        }
      ],
      "name": "Voted",
      "type": "event"
    },
    {
      "inputs": [],
      "name": "blue",
      "outputs": [
        {
          "internalType": "uint256",
          "name": "mintPrice",
          "type": "uint256"
        },
        {
          "internalType": "uint256",
          "name": "oldSupply",
          "type": "uint256"
        },
        {
          "internalType": "uint256",
          "name": "color",
          "type": "uint256"
        }
      ],
      "stateMutability": "view",
      "type": "function"
    },
    {
      "inputs": [],
      "name": "blueContract",
      "outputs": [
        {
          "internalType": "contract IBlue",
          "name": "",
          "type": "address"
        }
      ],
      "stateMutability": "view",
      "type": "function"
    },
    {
      "inputs": [],
      "name": "claimReward",
      "outputs": [],
      "stateMutability": "payable",
      "type": "function"
    },
    {
      "inputs": [
        {
          "internalType": "uint256",
          "name": "",
          "type": "uint256"
        }
      ],
      "name": "colorToNFT",
      "outputs": [
        {
          "internalType": "uint256",
          "name": "mintPrice",
          "type": "uint256"
        },
        {
          "internalType": "uint256",
          "name": "oldSupply",
          "type": "uint256"
        },
        {
          "internalType": "uint256",
          "name": "color",
          "type": "uint256"
        }
      ],
      "stateMutability": "view",
      "type": "function"
    },
    {
      "inputs": [],
      "name": "currentRoundPool",
      "outputs": [
        {
          "internalType": "uint256",
          "name": "",
          "type": "uint256"
        }
      ],
      "stateMutability": "view",
      "type": "function"
    },
    {
      "inputs": [],
      "name": "green",
      "outputs": [
        {
          "internalType": "uint256",
          "name": "mintPrice",
          "type": "uint256"
        },
        {
          "internalType": "uint256",
          "name": "oldSupply",
          "type": "uint256"
        },
        {
          "internalType": "uint256",
          "name": "color",
          "type": "uint256"
        }
      ],
      "stateMutability": "view",
      "type": "function"
    },
    {
      "inputs": [],
      "name": "greenContract",
      "outputs": [
        {
          "internalType": "contract IGreen",
          "name": "",
          "type": "address"
        }
      ],
      "stateMutability": "view",
      "type": "function"
    },
    {
      "inputs": [
        {
          "internalType": "uint256[]",
          "name": "tokenIds",
          "type": "uint256[]"
        }
      ],
      "name": "mintSpecialNFT",
      "outputs": [],
      "stateMutability": "nonpayable",
      "type": "function"
    },
    {
      "inputs": [],
      "name": "mintWinner",
      "outputs": [],
      "stateMutability": "payable",
      "type": "function"
    },
    {
      "inputs": [],
      "name": "nextRound",
      "outputs": [
        {
          "internalType": "uint256",
          "name": "",
          "type": "uint256"
        }
      ],
      "stateMutability": "view",
      "type": "function"
    },
    {
      "inputs": [
        {
          "internalType": "address",
          "name": "dest",
          "type": "address"
        }
      ],
      "name": "payments",
      "outputs": [
        {
          "internalType": "uint256",
          "name": "",
          "type": "uint256"
        }
      ],
      "stateMutability": "view",
      "type": "function"
    },
    {
      "inputs": [],
      "name": "red",
      "outputs": [
        {
          "internalType": "uint256",
          "name": "mintPrice",
          "type": "uint256"
        },
        {
          "internalType": "uint256",
          "name": "oldSupply",
          "type": "uint256"
        },
        {
          "internalType": "uint256",
          "name": "color",
          "type": "uint256"
        }
      ],
      "stateMutability": "view",
      "type": "function"
    },
    {
      "inputs": [],
      "name": "redContract",
      "outputs": [
        {
          "internalType": "contract IRed",
          "name": "",
          "type": "address"
        }
      ],
      "stateMutability": "view",
      "type": "function"
    },
    {
      "inputs": [],
      "name": "redeemAll",
      "outputs": [],
      "stateMutability": "nonpayable",
      "type": "function"
    },
    {
      "inputs": [],
      "name": "reset",
      "outputs": [],
      "stateMutability": "nonpayable",
      "type": "function"
    },
    {
      "inputs": [],
      "name": "resetTime",
      "outputs": [
        {
          "internalType": "uint256",
          "name": "",
          "type": "uint256"
        }
      ],
      "stateMutability": "view",
      "type": "function"
    },
    {
      "inputs": [],
      "name": "roundNumber",
      "outputs": [
        {
          "internalType": "uint256",
          "name": "",
          "type": "uint256"
        }
      ],
      "stateMutability": "view",
      "type": "function"
    },
    {
      "inputs": [
        {
          "internalType": "address",
          "name": "",
          "type": "address"
        },
        {
          "internalType": "uint256",
          "name": "",
          "type": "uint256"
        }
      ],
      "name": "roundToVoter",
      "outputs": [
        {
          "internalType": "bool",
          "name": "voted",
          "type": "bool"
        },
        {
          "internalType": "uint256",
          "name": "color",
          "type": "uint256"
        },
        {
          "internalType": "uint256",
          "name": "mintPrice",
          "type": "uint256"
        },
        {
          "internalType": "bool",
          "name": "minted",
          "type": "bool"
        },
        {
          "internalType": "bool",
          "name": "claimedReward",
          "type": "bool"
        }
      ],
      "stateMutability": "view",
      "type": "function"
    },
    {
      "inputs": [],
      "name": "sidePotPool",
      "outputs": [
        {
          "internalType": "address",
          "name": "",
          "type": "address"
        }
      ],
      "stateMutability": "view",
      "type": "function"
    },
    {
      "inputs": [],
      "name": "specialNFTContract",
      "outputs": [
        {
          "internalType": "contract ISpecialNFT",
          "name": "",
          "type": "address"
        }
      ],
      "stateMutability": "view",
      "type": "function"
    },
    {
      "inputs": [
        {
          "internalType": "uint256",
          "name": "_color",
          "type": "uint256"
        }
      ],
      "name": "voteForColor",
      "outputs": [],
      "stateMutability": "payable",
      "type": "function"
    },
    {
      "inputs": [],
      "name": "votersInRound",
      "outputs": [
        {
          "internalType": "uint256",
          "name": "",
          "type": "uint256"
        }
      ],
      "stateMutability": "view",
      "type": "function"
    },
    {
      "inputs": [
        {
          "internalType": "uint256",
          "name": "_color",
          "type": "uint256"
        }
      ],
      "name": "votingPrice",
      "outputs": [
        {
          "internalType": "uint256",
          "name": "",
          "type": "uint256"
        }
      ],
      "stateMutability": "view",
      "type": "function"
    },
    {
      "inputs": [],
      "name": "winningColor",
      "outputs": [
        {
          "internalType": "uint256",
          "name": "",
          "type": "uint256"
        }
      ],
      "stateMutability": "view",
      "type": "function"
    },
    {
      "inputs": [],
      "name": "winningRound",
      "outputs": [
        {
          "internalType": "uint256",
          "name": "",
          "type": "uint256"
        }
      ],
      "stateMutability": "view",
      "type": "function"
    },
    {
      "inputs": [],
      "name": "winningStatus",
      "outputs": [
        {
          "internalType": "bool",
          "name": "",
          "type": "bool"
        }
      ],
      "stateMutability": "view",
      "type": "function"
    },
    {
      "inputs": [
        {
          "internalType": "address payable",
          "name": "payee",
          "type": "address"
        }
      ],
      "name": "withdrawPayments",
      "outputs": [],
      "stateMutability": "nonpayable",
      "type": "function"
    },
    {
      "inputs": [],
      "name": "yellow",
      "outputs": [
        {
          "internalType": "uint256",
          "name": "mintPrice",
          "type": "uint256"
        },
        {
          "internalType": "uint256",
          "name": "oldSupply",
          "type": "uint256"
        },
        {
          "internalType": "uint256",
          "name": "color",
          "type": "uint256"
        }
      ],
      "stateMutability": "view",
      "type": "function"
    },
    {
      "inputs": [],
      "name": "yellowContract",
      "outputs": [
        {
          "internalType": "contract IYellow",
          "name": "",
          "type": "address"
        }
      ],
      "stateMutability": "view",
      "type": "function"
    }
  ],
  "bytecode": "0x60a06040526000600155600a600955604051806060016040528067016345785d8a00008152602001600081526020016001815250600c6000820151816000015560208201518160010155604082015181600201555050604051806060016040528067016345785d8a00008152602001600081526020016002815250600f6000820151816000015560208201518160010155604082015181600201555050604051806060016040528067016345785d8a0000815260200160008152602001600381525060126000820151816000015560208201518160010155604082015181600201555050604051806060016040528067016345785d8a00008152602001600081526020016004815250601560008201518160000155602082015181600101556040820151816002015550503480156200013757600080fd5b50604051620044aa380380620044aa83398181016040528101906200015d9190620003d6565b6040516200016b90620003b1565b604051809103906000f08015801562000188573d6000803e3d6000fd5b5073ffffffffffffffffffffffffffffffffffffffff1660808173ffffffffffffffffffffffffffffffffffffffff1660601b81525050600160008190555083601860006101000a81548173ffffffffffffffffffffffffffffffffffffffff021916908373ffffffffffffffffffffffffffffffffffffffff16021790555082601960006101000a81548173ffffffffffffffffffffffffffffffffffffffff021916908373ffffffffffffffffffffffffffffffffffffffff16021790555081601a60006101000a81548173ffffffffffffffffffffffffffffffffffffffff021916908373ffffffffffffffffffffffffffffffffffffffff16021790555080601b60006101000a81548173ffffffffffffffffffffffffffffffffffffffff021916908373ffffffffffffffffffffffffffffffffffffffff160217905550600c600a600060018152602001908152602001600020600082015481600001556001820154816001015560028201548160020155905050600f600a6000600281526020019081526020016000206000820154816000015560018201548160010155600282015481600201559050506012600a6000600381526020019081526020016000206000820154816000015560018201548160010155600282015481600201559050506015600a6000600481526020019081526020016000206000820154816000015560018201548160010155600282015481600201559050505050505062000490565b610d0980620037a183390190565b600081519050620003d08162000476565b92915050565b60008060008060808587031215620003ed57600080fd5b6000620003fd87828801620003bf565b94505060206200041087828801620003bf565b93505060406200042387828801620003bf565b92505060606200043687828801620003bf565b91505092959194509250565b60006200044f8262000456565b9050919050565b600073ffffffffffffffffffffffffffffffffffffffff82169050919050565b620004818162000442565b81146200048d57600080fd5b50565b60805160601c6132e4620004bd600039600081816106ca0152818161230d015261241901526132e46000f3fe6080604052600436106101c25760003560e01c8063a3535b14116100f7578063c60deabd11610095578063ed18f0a711610064578063ed18f0a7146105cf578063f05f4b00146105fc578063f2f1e13214610627578063f5fcffb114610654576101c2565b8063c60deabd14610534578063cbdb2e7714610550578063d826f88f1461057b578063e2982c2114610592576101c2565b8063b9ebc2d0116100d1578063b9ebc2d014610488578063b9f68eb1146104b3578063bb9fca17146104dc578063be9faf1314610507576101c2565b8063a3535b1414610402578063b345bdfc1461043f578063b88a802f1461047e576101c2565b80634c914658116101645780635fdf643d1161013e5780635fdf643d1461037757806365a114f1146103a25780639787fc7f146103cd578063a1f532f6146103d7576101c2565b80634c914658146102f65780634e2786fb146103215780634f3516c71461034c576101c2565b806331b3eb94116101a057806331b3eb94146102365780633609fc9f1461025f57806347e40553146102a05780634949787b146102cb576101c2565b80631dc5ab96146101c75780632930cf24146101f25780632f4350c21461021f575b600080fd5b3480156101d357600080fd5b506101dc61067f565b6040516101e9919061295f565b60405180910390f35b3480156101fe57600080fd5b506102076106a5565b60405161021693929190612cea565b60405180910390f35b34801561022b57600080fd5b506102346106bd565b005b34801561024257600080fd5b5061025d600480360381019061025891906125ac565b6106c8565b005b34801561026b57600080fd5b50610286600480360381019061028191906125d5565b610756565b6040516102979594939291906129f5565b60405180910390f35b3480156102ac57600080fd5b506102b56107c0565b6040516102c29190612ccf565b60405180910390f35b3480156102d757600080fd5b506102e06107c6565b6040516102ed9190612ccf565b60405180910390f35b34801561030257600080fd5b5061030b6107cc565b6040516103189190612ccf565b60405180910390f35b34801561032d57600080fd5b506103366107d2565b6040516103439190612ccf565b60405180910390f35b34801561035857600080fd5b506103616107d8565b60405161036e9190612ccf565b60405180910390f35b34801561038357600080fd5b5061038c6107de565b6040516103999190612a7e565b60405180910390f35b3480156103ae57600080fd5b506103b7610804565b6040516103c49190612ccf565b60405180910390f35b6103d561080a565b005b3480156103e357600080fd5b506103ec610ec1565b6040516103f99190612a99565b60405180910390f35b34801561040e57600080fd5b5061042960048036038101906104249190612656565b610ee7565b6040516104369190612ccf565b60405180910390f35b34801561044b57600080fd5b5061046660048036038101906104619190612656565b610ff6565b60405161047593929190612cea565b60405180910390f35b610486611020565b005b34801561049457600080fd5b5061049d6113c2565b6040516104aa9190612a48565b60405180910390f35b3480156104bf57600080fd5b506104da60048036038101906104d59190612611565b6113e8565b005b3480156104e857600080fd5b506104f1611d7a565b6040516104fe9190612a63565b60405180910390f35b34801561051357600080fd5b5061051c611da0565b60405161052b93929190612cea565b60405180910390f35b61054e60048036038101906105499190612656565b611db8565b005b34801561055c57600080fd5b506105656121aa565b60405161057291906129da565b60405180910390f35b34801561058757600080fd5b506105906121bd565b005b34801561059e57600080fd5b506105b960048036038101906105b4919061255a565b612309565b6040516105c69190612ccf565b60405180910390f35b3480156105db57600080fd5b506105e46123bb565b6040516105f393929190612cea565b60405180910390f35b34801561060857600080fd5b506106116123d3565b60405161061e9190612ccf565b60405180910390f35b34801561063357600080fd5b5061063c6123d9565b60405161064b93929190612cea565b60405180910390f35b34801561066057600080fd5b506106696123f1565b6040516106769190612ab4565b60405180910390f35b600560009054906101000a900473ffffffffffffffffffffffffffffffffffffffff1681565b600c8060000154908060010154908060020154905083565b6106c6336106c8565b565b7f000000000000000000000000000000000000000000000000000000000000000073ffffffffffffffffffffffffffffffffffffffff166351cff8d9826040518263ffffffff1660e01b8152600401610721919061297a565b600060405180830381600087803b15801561073b57600080fd5b505af115801561074f573d6000803e3d6000fd5b5050505050565b600b602052816000526040600020602052806000526040600020600091509150508060000160009054906101000a900460ff16908060010154908060020154908060030160009054906101000a900460ff16908060030160019054906101000a900460ff16905085565b60095481565b60025481565b60045481565b60015481565b60075481565b601860009054906101000a900473ffffffffffffffffffffffffffffffffffffffff1681565b60065481565b60026000541415610850576040517f08c379a000000000000000000000000000000000000000000000000000000000815260040161084790612c2f565b60405180910390fd5b600260008190555060011515600b60003373ffffffffffffffffffffffffffffffffffffffff1673ffffffffffffffffffffffffffffffffffffffff1681526020019081526020016000206000600354815260200190815260200160002060000160009054906101000a900460ff16151514610901576040517f08c379a00000000000000000000000000000000000000000000000000000000081526004016108f890612bef565b60405180910390fd5b600254600b60003373ffffffffffffffffffffffffffffffffffffffff1673ffffffffffffffffffffffffffffffffffffffff16815260200190815260200160002060006003548152602001908152602001600020600101541461099a576040517f08c379a000000000000000000000000000000000000000000000000000000000815260040161099190612b0f565b60405180910390fd5b60001515600b60003373ffffffffffffffffffffffffffffffffffffffff1673ffffffffffffffffffffffffffffffffffffffff1681526020019081526020016000206000600354815260200190815260200160002060030160019054906101000a900460ff16151514610a43576040517f08c379a0000000000000000000000000000000000000000000000000000000008152600401610a3a90612aef565b60405180910390fd5b60001515600b60003373ffffffffffffffffffffffffffffffffffffffff1673ffffffffffffffffffffffffffffffffffffffff1681526020019081526020016000206000600354815260200190815260200160002060030160009054906101000a900460ff16151514610aec576040517f08c379a0000000000000000000000000000000000000000000000000000000008152600401610ae390612c8f565b60405180910390fd5b6001600b60003373ffffffffffffffffffffffffffffffffffffffff1673ffffffffffffffffffffffffffffffffffffffff168152602001908152602001600020600060035481526020019081526020016000206001015414610dbb576002600b60003373ffffffffffffffffffffffffffffffffffffffff1673ffffffffffffffffffffffffffffffffffffffff168152602001908152602001600020600060035481526020019081526020016000206001015414610d28576003600b60003373ffffffffffffffffffffffffffffffffffffffff1673ffffffffffffffffffffffffffffffffffffffff168152602001908152602001600020600060035481526020019081526020016000206001015414610c9557601b60009054906101000a900473ffffffffffffffffffffffffffffffffffffffff1673ffffffffffffffffffffffffffffffffffffffff16634894d393336040518263ffffffff1660e01b8152600401610c5e919061295f565b600060405180830381600087803b158015610c7857600080fd5b505af1158015610c8c573d6000803e3d6000fd5b50505050610d23565b601a60009054906101000a900473ffffffffffffffffffffffffffffffffffffffff1673ffffffffffffffffffffffffffffffffffffffff16634894d393336040518263ffffffff1660e01b8152600401610cf0919061295f565b600060405180830381600087803b158015610d0a57600080fd5b505af1158015610d1e573d6000803e3d6000fd5b505050505b610db6565b601960009054906101000a900473ffffffffffffffffffffffffffffffffffffffff1673ffffffffffffffffffffffffffffffffffffffff16634894d393336040518263ffffffff1660e01b8152600401610d83919061295f565b600060405180830381600087803b158015610d9d57600080fd5b505af1158015610db1573d6000803e3d6000fd5b505050505b610e49565b601860009054906101000a900473ffffffffffffffffffffffffffffffffffffffff1673ffffffffffffffffffffffffffffffffffffffff16634894d393336040518263ffffffff1660e01b8152600401610e16919061295f565b600060405180830381600087803b158015610e3057600080fd5b505af1158015610e44573d6000803e3d6000fd5b505050505b6001600b60003373ffffffffffffffffffffffffffffffffffffffff1673ffffffffffffffffffffffffffffffffffffffff1681526020019081526020016000206000600354815260200190815260200160002060030160006101000a81548160ff0219169083151502179055506001600081905550565b601c60009054906101000a900473ffffffffffffffffffffffffffffffffffffffff1681565b600080600a6000848152602001908152602001600020600101549050600067016345785d8a0000905060098210610f2857670853a0d2313c00009050610fec565b60088210610f405767063eb89da4ed00009050610feb565b60078210610f585767054607fc96a600009050610fea565b60068210610f7057670429d069189e00009050610fe9565b60058210610f88576703782dace9d900009050610fe8565b60048210610fa05767030d98d59a9600009050610fe7565b60038210610fb85767027f7d0bdb9200009050610fe6565b60028210610fd057670214e8348c4f00009050610fe5565b60018210610fe4576701aa535d3d0c000090505b5b5b5b5b5b5b5b5b8092505050919050565b600a6020528060005260406000206000915090508060000154908060010154908060020154905083565b60026000541415611066576040517f08c379a000000000000000000000000000000000000000000000000000000000815260040161105d90612c2f565b60405180910390fd5b600260008190555060011515600b60003373ffffffffffffffffffffffffffffffffffffffff1673ffffffffffffffffffffffffffffffffffffffff1681526020019081526020016000206000600354815260200190815260200160002060000160009054906101000a900460ff16151514611117576040517f08c379a000000000000000000000000000000000000000000000000000000000815260040161110e90612bef565b60405180910390fd5b600254600b60003373ffffffffffffffffffffffffffffffffffffffff1673ffffffffffffffffffffffffffffffffffffffff1681526020019081526020016000206000600354815260200190815260200160002060010154146111b0576040517f08c379a00000000000000000000000000000000000000000000000000000000081526004016111a790612b0f565b60405180910390fd5b60001515600b60003373ffffffffffffffffffffffffffffffffffffffff1673ffffffffffffffffffffffffffffffffffffffff1681526020019081526020016000206000600354815260200190815260200160002060030160019054906101000a900460ff16151514611259576040517f08c379a000000000000000000000000000000000000000000000000000000000815260040161125090612aef565b60405180910390fd5b60001515600b60003373ffffffffffffffffffffffffffffffffffffffff1673ffffffffffffffffffffffffffffffffffffffff1681526020019081526020016000206000600354815260200190815260200160002060030160009054906101000a900460ff16151514611302576040517f08c379a00000000000000000000000000000000000000000000000000000000081526004016112f990612c8f565b60405180910390fd5b6113423360095460095460075460045461131c9190612d88565b6113269190612db9565b6004546113339190612e13565b61133d9190612d88565b612417565b61134a6106bd565b6001600b60003373ffffffffffffffffffffffffffffffffffffffff1673ffffffffffffffffffffffffffffffffffffffff1681526020019081526020016000206000600354815260200190815260200160002060030160016101000a81548160ff0219169083151502179055506001600081905550565b601960009054906101000a900473ffffffffffffffffffffffffffffffffffffffff1681565b60008282905090506004811115611434576040517f08c379a000000000000000000000000000000000000000000000000000000000815260040161142b90612acf565b60405180910390fd5b6000601860009054906101000a900473ffffffffffffffffffffffffffffffffffffffff1673ffffffffffffffffffffffffffffffffffffffff16636352211e858560008181106114ae577f4e487b7100000000000000000000000000000000000000000000000000000000600052603260045260246000fd5b905060200201356040518263ffffffff1660e01b81526004016114d19190612ccf565b602060405180830381600087803b1580156114eb57600080fd5b505af11580156114ff573d6000803e3d6000fd5b505050506040513d601f19601f820116820180604052508101906115239190612583565b90506000601960009054906101000a900473ffffffffffffffffffffffffffffffffffffffff1673ffffffffffffffffffffffffffffffffffffffff16636352211e8686600181811061159f577f4e487b7100000000000000000000000000000000000000000000000000000000600052603260045260246000fd5b905060200201356040518263ffffffff1660e01b81526004016115c29190612ccf565b602060405180830381600087803b1580156115dc57600080fd5b505af11580156115f0573d6000803e3d6000fd5b505050506040513d601f19601f820116820180604052508101906116149190612583565b90506000601a60009054906101000a900473ffffffffffffffffffffffffffffffffffffffff1673ffffffffffffffffffffffffffffffffffffffff16636352211e87876002818110611690577f4e487b7100000000000000000000000000000000000000000000000000000000600052603260045260246000fd5b905060200201356040518263ffffffff1660e01b81526004016116b39190612ccf565b602060405180830381600087803b1580156116cd57600080fd5b505af11580156116e1573d6000803e3d6000fd5b505050506040513d601f19601f820116820180604052508101906117059190612583565b90506000601b60009054906101000a900473ffffffffffffffffffffffffffffffffffffffff1673ffffffffffffffffffffffffffffffffffffffff16636352211e88886003818110611781577f4e487b7100000000000000000000000000000000000000000000000000000000600052603260045260246000fd5b905060200201356040518263ffffffff1660e01b81526004016117a49190612ccf565b602060405180830381600087803b1580156117be57600080fd5b505af11580156117d2573d6000803e3d6000fd5b505050506040513d601f19601f820116820180604052508101906117f69190612583565b90508373ffffffffffffffffffffffffffffffffffffffff163373ffffffffffffffffffffffffffffffffffffffff1614611866576040517f08c379a000000000000000000000000000000000000000000000000000000000815260040161185d90612caf565b60405180910390fd5b8273ffffffffffffffffffffffffffffffffffffffff163373ffffffffffffffffffffffffffffffffffffffff16146118d4576040517f08c379a00000000000000000000000000000000000000000000000000000000081526004016118cb90612c4f565b60405180910390fd5b8173ffffffffffffffffffffffffffffffffffffffff163373ffffffffffffffffffffffffffffffffffffffff1614611942576040517f08c379a000000000000000000000000000000000000000000000000000000000815260040161193990612baf565b60405180910390fd5b8073ffffffffffffffffffffffffffffffffffffffff163373ffffffffffffffffffffffffffffffffffffffff16146119b0576040517f08c379a00000000000000000000000000000000000000000000000000000000081526004016119a790612b4f565b60405180910390fd5b601860009054906101000a900473ffffffffffffffffffffffffffffffffffffffff1673ffffffffffffffffffffffffffffffffffffffff166342966c6888886000818110611a28577f4e487b7100000000000000000000000000000000000000000000000000000000600052603260045260246000fd5b905060200201356040518263ffffffff1660e01b8152600401611a4b9190612ccf565b600060405180830381600087803b158015611a6557600080fd5b505af1158015611a79573d6000803e3d6000fd5b50505050601960009054906101000a900473ffffffffffffffffffffffffffffffffffffffff1673ffffffffffffffffffffffffffffffffffffffff166342966c6888886001818110611af5577f4e487b7100000000000000000000000000000000000000000000000000000000600052603260045260246000fd5b905060200201356040518263ffffffff1660e01b8152600401611b189190612ccf565b600060405180830381600087803b158015611b3257600080fd5b505af1158015611b46573d6000803e3d6000fd5b50505050601a60009054906101000a900473ffffffffffffffffffffffffffffffffffffffff1673ffffffffffffffffffffffffffffffffffffffff166342966c6888886002818110611bc2577f4e487b7100000000000000000000000000000000000000000000000000000000600052603260045260246000fd5b905060200201356040518263ffffffff1660e01b8152600401611be59190612ccf565b600060405180830381600087803b158015611bff57600080fd5b505af1158015611c13573d6000803e3d6000fd5b50505050601b60009054906101000a900473ffffffffffffffffffffffffffffffffffffffff1673ffffffffffffffffffffffffffffffffffffffff166342966c6888886003818110611c8f577f4e487b7100000000000000000000000000000000000000000000000000000000600052603260045260246000fd5b905060200201356040518263ffffffff1660e01b8152600401611cb29190612ccf565b600060405180830381600087803b158015611ccc57600080fd5b505af1158015611ce0573d6000803e3d6000fd5b50505050601c60009054906101000a900473ffffffffffffffffffffffffffffffffffffffff1673ffffffffffffffffffffffffffffffffffffffff16634894d393336040518263ffffffff1660e01b8152600401611d3f919061295f565b600060405180830381600087803b158015611d5957600080fd5b505af1158015611d6d573d6000803e3d6000fd5b5050505050505050505050565b601a60009054906101000a900473ffffffffffffffffffffffffffffffffffffffff1681565b60158060000154908060010154908060020154905083565b6000600a600083815260200190815260200160002090506000611dde8260020154610ee7565b9050803414611e22576040517f08c379a0000000000000000000000000000000000000000000000000000000008152600401611e1990612c6f565b60405180910390fd5b60018310158015611e34575060048311155b611e73576040517f08c379a0000000000000000000000000000000000000000000000000000000008152600401611e6a90612b6f565b60405180910390fd5b600954826001015410611ebb576040517f08c379a0000000000000000000000000000000000000000000000000000000008152600401611eb290612b8f565b60405180910390fd5b60001515600b60003373ffffffffffffffffffffffffffffffffffffffff1673ffffffffffffffffffffffffffffffffffffffff1681526020019081526020016000206000600154815260200190815260200160002060000160009054906101000a900460ff16151514611f64576040517f08c379a0000000000000000000000000000000000000000000000000000000008152600401611f5b90612b2f565b60405180910390fd5b6001826001016000828254611f799190612d32565b9250508190555082826002018190555082600b60003373ffffffffffffffffffffffffffffffffffffffff1673ffffffffffffffffffffffffffffffffffffffff168152602001908152602001600020600060015481526020019081526020016000206001018190555080826000018190555080600b60003373ffffffffffffffffffffffffffffffffffffffff1673ffffffffffffffffffffffffffffffffffffffff168152602001908152602001600020600060015481526020019081526020016000206002018190555060006064605a346120579190612db9565b6120619190612d88565b905061206d3382612417565b346004600082825461207f9190612d32565b92505081905550600954836001015414156120c45760015460038190555082600201546002819055506001600860006101000a81548160ff0219169083151502179055505b6001600b60003373ffffffffffffffffffffffffffffffffffffffff1673ffffffffffffffffffffffffffffffffffffffff1681526020019081526020016000206000600154815260200190815260200160002060000160006101000a81548160ff0219169083151502179055506001600760008282546121459190612d32565b92505081905550620151804261215b9190612d32565b6006819055507fc32b42768a47a585121e9b8d7a2ab9d3f34c326a192dee11ee1732e3d18313f33384600001546001548760405161219c9493929190612995565b60405180910390a150505050565b600860009054906101000a900460ff1681565b6006544211612201576040517f08c379a00000000000000000000000000000000000000000000000000000000081526004016121f890612bcf565b60405180910390fd5b60011515600860009054906101000a900460ff16151514612257576040517f08c379a000000000000000000000000000000000000000000000000000000000815260040161224e90612c0f565b60405180910390fd5b600060028190555060018060008282546122719190612d32565b925050819055506000600c6001018190555067016345785d8a0000600c600001819055506000600f6001018190555067016345785d8a0000600f60000181905550600060156001018190555067016345785d8a0000601560000181905550600060126001018190555067016345785d8a00006012600001819055506000600860006101000a81548160ff021916908315150217905550565b60007f000000000000000000000000000000000000000000000000000000000000000073ffffffffffffffffffffffffffffffffffffffff1663e3a9db1a836040518263ffffffff1660e01b8152600401612364919061295f565b60206040518083038186803b15801561237c57600080fd5b505afa158015612390573d6000803e3d6000fd5b505050506040513d601f19601f820116820180604052508101906123b4919061267f565b9050919050565b600f8060000154908060010154908060020154905083565b60035481565b60128060000154908060010154908060020154905083565b601b60009054906101000a900473ffffffffffffffffffffffffffffffffffffffff1681565b7f000000000000000000000000000000000000000000000000000000000000000073ffffffffffffffffffffffffffffffffffffffff1663f340fa0182846040518363ffffffff1660e01b8152600401612471919061295f565b6000604051808303818588803b15801561248a57600080fd5b505af115801561249e573d6000803e3d6000fd5b50505050505050565b6000813590506124b681613269565b92915050565b6000815190506124cb81613269565b92915050565b6000813590506124e081613280565b92915050565b60008083601f8401126124f857600080fd5b8235905067ffffffffffffffff81111561251157600080fd5b60208301915083602082028301111561252957600080fd5b9250929050565b60008135905061253f81613297565b92915050565b60008151905061255481613297565b92915050565b60006020828403121561256c57600080fd5b600061257a848285016124a7565b91505092915050565b60006020828403121561259557600080fd5b60006125a3848285016124bc565b91505092915050565b6000602082840312156125be57600080fd5b60006125cc848285016124d1565b91505092915050565b600080604083850312156125e857600080fd5b60006125f6858286016124a7565b925050602061260785828601612530565b9150509250929050565b6000806020838503121561262457600080fd5b600083013567ffffffffffffffff81111561263e57600080fd5b61264a858286016124e6565b92509250509250929050565b60006020828403121561266857600080fd5b600061267684828501612530565b91505092915050565b60006020828403121561269157600080fd5b600061269f84828501612545565b91505092915050565b6126b181612e59565b82525050565b6126c081612e47565b82525050565b6126cf81612e6b565b82525050565b6126de81612ea1565b82525050565b6126ed81612ec5565b82525050565b6126fc81612ee9565b82525050565b61270b81612f0d565b82525050565b61271a81612f31565b82525050565b600061272d600f83612d21565b915061273882612fb3565b602082019050919050565b6000612750602583612d21565b915061275b82612fdc565b604082019050919050565b6000612773601883612d21565b915061277e8261302b565b602082019050919050565b6000612796601883612d21565b91506127a182613054565b602082019050919050565b60006127b9601483612d21565b91506127c48261307d565b602082019050919050565b60006127dc600b83612d21565b91506127e7826130a6565b602082019050919050565b60006127ff600b83612d21565b915061280a826130cf565b602082019050919050565b6000612822601383612d21565b915061282d826130f8565b602082019050919050565b6000612845600d83612d21565b915061285082613121565b602082019050919050565b6000612868600c83612d21565b91506128738261314a565b602082019050919050565b600061288b601583612d21565b915061289682613173565b602082019050919050565b60006128ae601f83612d21565b91506128b98261319c565b602082019050919050565b60006128d1601283612d21565b91506128dc826131c5565b602082019050919050565b60006128f4601083612d21565b91506128ff826131ee565b602082019050919050565b6000612917601983612d21565b915061292282613217565b602082019050919050565b600061293a601183612d21565b915061294582613240565b602082019050919050565b61295981612e97565b82525050565b600060208201905061297460008301846126b7565b92915050565b600060208201905061298f60008301846126a8565b92915050565b60006080820190506129aa60008301876126b7565b6129b76020830186612950565b6129c46040830185612950565b6129d16060830184612950565b95945050505050565b60006020820190506129ef60008301846126c6565b92915050565b600060a082019050612a0a60008301886126c6565b612a176020830187612950565b612a246040830186612950565b612a3160608301856126c6565b612a3e60808301846126c6565b9695505050505050565b6000602082019050612a5d60008301846126d5565b92915050565b6000602082019050612a7860008301846126e4565b92915050565b6000602082019050612a9360008301846126f3565b92915050565b6000602082019050612aae6000830184612702565b92915050565b6000602082019050612ac96000830184612711565b92915050565b60006020820190508181036000830152612ae881612720565b9050919050565b60006020820190508181036000830152612b0881612743565b9050919050565b60006020820190508181036000830152612b2881612766565b9050919050565b60006020820190508181036000830152612b4881612789565b9050919050565b60006020820190508181036000830152612b68816127ac565b9050919050565b60006020820190508181036000830152612b88816127cf565b9050919050565b60006020820190508181036000830152612ba8816127f2565b9050919050565b60006020820190508181036000830152612bc881612815565b9050919050565b60006020820190508181036000830152612be881612838565b9050919050565b60006020820190508181036000830152612c088161285b565b9050919050565b60006020820190508181036000830152612c288161287e565b9050919050565b60006020820190508181036000830152612c48816128a1565b9050919050565b60006020820190508181036000830152612c68816128c4565b9050919050565b60006020820190508181036000830152612c88816128e7565b9050919050565b60006020820190508181036000830152612ca88161290a565b9050919050565b60006020820190508181036000830152612cc88161292d565b9050919050565b6000602082019050612ce46000830184612950565b92915050565b6000606082019050612cff6000830186612950565b612d0c6020830185612950565b612d196040830184612950565b949350505050565b600082825260208201905092915050565b6000612d3d82612e97565b9150612d4883612e97565b9250827fffffffffffffffffffffffffffffffffffffffffffffffffffffffffffffffff03821115612d7d57612d7c612f55565b5b828201905092915050565b6000612d9382612e97565b9150612d9e83612e97565b925082612dae57612dad612f84565b5b828204905092915050565b6000612dc482612e97565b9150612dcf83612e97565b9250817fffffffffffffffffffffffffffffffffffffffffffffffffffffffffffffffff0483118215151615612e0857612e07612f55565b5b828202905092915050565b6000612e1e82612e97565b9150612e2983612e97565b925082821015612e3c57612e3b612f55565b5b828203905092915050565b6000612e5282612e77565b9050919050565b6000612e6482612e77565b9050919050565b60008115159050919050565b600073ffffffffffffffffffffffffffffffffffffffff82169050919050565b6000819050919050565b6000612eac82612eb3565b9050919050565b6000612ebe82612e77565b9050919050565b6000612ed082612ed7565b9050919050565b6000612ee282612e77565b9050919050565b6000612ef482612efb565b9050919050565b6000612f0682612e77565b9050919050565b6000612f1882612f1f565b9050919050565b6000612f2a82612e77565b9050919050565b6000612f3c82612f43565b9050919050565b6000612f4e82612e77565b9050919050565b7f4e487b7100000000000000000000000000000000000000000000000000000000600052601160045260246000fd5b7f4e487b7100000000000000000000000000000000000000000000000000000000600052601260045260246000fd5b7f546f6f206d616e7920746f6b656e730000000000000000000000000000000000600082015250565b7f416c726561647920636c61696d65642072657761726420666f7220746869732060008201527f726f756e64000000000000000000000000000000000000000000000000000000602082015250565b7f6861766520746f2062652077696e6e696e6720636f6c6f720000000000000000600082015250565b7f416c726561647920766f746564207468697320726f756e640000000000000000600082015250565b7f596f7520646f6e2774206f776e2079656c6c6f77000000000000000000000000600082015250565b7f57726f6e6720636f6c6f72000000000000000000000000000000000000000000600082015250565b7f526f756e6420656e646564000000000000000000000000000000000000000000600082015250565b7f596f7520646f6e2774206f776e20677265656e00000000000000000000000000600082015250565b7f4e6f742079657420726561647900000000000000000000000000000000000000600082015250565b7f6861766520746f20766f74650000000000000000000000000000000000000000600082015250565b7f526f756e64206973206e6f742066696e69736865640000000000000000000000600082015250565b7f5265656e7472616e637947756172643a207265656e7472616e742063616c6c00600082015250565b7f596f7520646f6e2774206f776e20626c75650000000000000000000000000000600082015250565b7f496e636f727265637420616d6f756e7400000000000000000000000000000000600082015250565b7f416c7265616479206d696e746564207468697320726f756e6400000000000000600082015250565b7f596f7520646f6e2774206f776e20726564000000000000000000000000000000600082015250565b61327281612e47565b811461327d57600080fd5b50565b61328981612e59565b811461329457600080fd5b50565b6132a081612e97565b81146132ab57600080fd5b5056fea2646970667358221220720298f801dd83291f2c4ff54264632b95fbfa0428b26ff4c8727d86fbb225ef64736f6c63430008040033608060405234801561001057600080fd5b5061002d61002261003260201b60201c565b61003a60201b60201c565b6100fe565b600033905090565b60008060009054906101000a900473ffffffffffffffffffffffffffffffffffffffff169050816000806101000a81548173ffffffffffffffffffffffffffffffffffffffff021916908373ffffffffffffffffffffffffffffffffffffffff1602179055508173ffffffffffffffffffffffffffffffffffffffff168173ffffffffffffffffffffffffffffffffffffffff167f8be0079c531659141344cd1fd0a4f28419497f9722a3daafe3b4186f6b6457e060405160405180910390a35050565b610bfc8061010d6000396000f3fe6080604052600436106100555760003560e01c806351cff8d91461005a578063715018a6146100835780638da5cb5b1461009a578063e3a9db1a146100c5578063f2fde38b14610102578063f340fa011461012b575b600080fd5b34801561006657600080fd5b50610081600480360381019061007c91906107f5565b610147565b005b34801561008f57600080fd5b506100986102c7565b005b3480156100a657600080fd5b506100af61034f565b6040516100bc9190610900565b60405180910390f35b3480156100d157600080fd5b506100ec60048036038101906100e791906107cc565b610378565b6040516100f9919061099b565b60405180910390f35b34801561010e57600080fd5b50610129600480360381019061012491906107cc565b6103c1565b005b610145600480360381019061014091906107cc565b6104b9565b005b61014f6105e2565b73ffffffffffffffffffffffffffffffffffffffff1661016d61034f565b73ffffffffffffffffffffffffffffffffffffffff16146101c3576040517f08c379a00000000000000000000000000000000000000000000000000000000081526004016101ba9061097b565b60405180910390fd5b6000600160008373ffffffffffffffffffffffffffffffffffffffff1673ffffffffffffffffffffffffffffffffffffffff1681526020019081526020016000205490506000600160008473ffffffffffffffffffffffffffffffffffffffff1673ffffffffffffffffffffffffffffffffffffffff16815260200190815260200160002081905550610275818373ffffffffffffffffffffffffffffffffffffffff166105ea90919063ffffffff16565b8173ffffffffffffffffffffffffffffffffffffffff167f7084f5476618d8e60b11ef0d7d3f06914655adb8793e28ff7f018d4c76d505d5826040516102bb919061099b565b60405180910390a25050565b6102cf6105e2565b73ffffffffffffffffffffffffffffffffffffffff166102ed61034f565b73ffffffffffffffffffffffffffffffffffffffff1614610343576040517f08c379a000000000000000000000000000000000000000000000000000000000815260040161033a9061097b565b60405180910390fd5b61034d60006106de565b565b60008060009054906101000a900473ffffffffffffffffffffffffffffffffffffffff16905090565b6000600160008373ffffffffffffffffffffffffffffffffffffffff1673ffffffffffffffffffffffffffffffffffffffff168152602001908152602001600020549050919050565b6103c96105e2565b73ffffffffffffffffffffffffffffffffffffffff166103e761034f565b73ffffffffffffffffffffffffffffffffffffffff161461043d576040517f08c379a00000000000000000000000000000000000000000000000000000000081526004016104349061097b565b60405180910390fd5b600073ffffffffffffffffffffffffffffffffffffffff168173ffffffffffffffffffffffffffffffffffffffff1614156104ad576040517f08c379a00000000000000000000000000000000000000000000000000000000081526004016104a49061091b565b60405180910390fd5b6104b6816106de565b50565b6104c16105e2565b73ffffffffffffffffffffffffffffffffffffffff166104df61034f565b73ffffffffffffffffffffffffffffffffffffffff1614610535576040517f08c379a000000000000000000000000000000000000000000000000000000000815260040161052c9061097b565b60405180910390fd5b600034905080600160008473ffffffffffffffffffffffffffffffffffffffff1673ffffffffffffffffffffffffffffffffffffffff168152602001908152602001600020600082825461058991906109d2565b925050819055508173ffffffffffffffffffffffffffffffffffffffff167f2da466a7b24304f47e87fa2e1e5a81b9831ce54fec19055ce277ca2f39ba42c4826040516105d6919061099b565b60405180910390a25050565b600033905090565b8047101561062d576040517f08c379a00000000000000000000000000000000000000000000000000000000081526004016106249061095b565b60405180910390fd5b60008273ffffffffffffffffffffffffffffffffffffffff1682604051610653906108eb565b60006040518083038185875af1925050503d8060008114610690576040519150601f19603f3d011682016040523d82523d6000602084013e610695565b606091505b50509050806106d9576040517f08c379a00000000000000000000000000000000000000000000000000000000081526004016106d09061093b565b60405180910390fd5b505050565b60008060009054906101000a900473ffffffffffffffffffffffffffffffffffffffff169050816000806101000a81548173ffffffffffffffffffffffffffffffffffffffff021916908373ffffffffffffffffffffffffffffffffffffffff1602179055508173ffffffffffffffffffffffffffffffffffffffff168173ffffffffffffffffffffffffffffffffffffffff167f8be0079c531659141344cd1fd0a4f28419497f9722a3daafe3b4186f6b6457e060405160405180910390a35050565b6000813590506107b181610b98565b92915050565b6000813590506107c681610baf565b92915050565b6000602082840312156107de57600080fd5b60006107ec848285016107a2565b91505092915050565b60006020828403121561080757600080fd5b6000610815848285016107b7565b91505092915050565b61082781610a28565b82525050565b600061083a6026836109c1565b915061084582610aa5565b604082019050919050565b600061085d603a836109c1565b915061086882610af4565b604082019050919050565b6000610880601d836109c1565b915061088b82610b43565b602082019050919050565b60006108a36020836109c1565b91506108ae82610b6c565b602082019050919050565b60006108c66000836109b6565b91506108d182610b95565b600082019050919050565b6108e581610a6c565b82525050565b60006108f6826108b9565b9150819050919050565b6000602082019050610915600083018461081e565b92915050565b600060208201905081810360008301526109348161082d565b9050919050565b6000602082019050818103600083015261095481610850565b9050919050565b6000602082019050818103600083015261097481610873565b9050919050565b6000602082019050818103600083015261099481610896565b9050919050565b60006020820190506109b060008301846108dc565b92915050565b600081905092915050565b600082825260208201905092915050565b60006109dd82610a6c565b91506109e883610a6c565b9250827fffffffffffffffffffffffffffffffffffffffffffffffffffffffffffffffff03821115610a1d57610a1c610a76565b5b828201905092915050565b6000610a3382610a4c565b9050919050565b6000610a4582610a4c565b9050919050565b600073ffffffffffffffffffffffffffffffffffffffff82169050919050565b6000819050919050565b7f4e487b7100000000000000000000000000000000000000000000000000000000600052601160045260246000fd5b7f4f776e61626c653a206e6577206f776e657220697320746865207a65726f206160008201527f6464726573730000000000000000000000000000000000000000000000000000602082015250565b7f416464726573733a20756e61626c6520746f2073656e642076616c75652c207260008201527f6563697069656e74206d61792068617665207265766572746564000000000000602082015250565b7f416464726573733a20696e73756666696369656e742062616c616e6365000000600082015250565b7f4f776e61626c653a2063616c6c6572206973206e6f7420746865206f776e6572600082015250565b50565b610ba181610a28565b8114610bac57600080fd5b50565b610bb881610a3a565b8114610bc357600080fd5b5056fea2646970667358221220b2a6db4c00e57e7ef608d5e81a53c60e6688cd2b85172cc39bb6858c6c6988ec64736f6c63430008040033",
  "linkReferences": {},
  "deployedLinkReferences": {}
}